:020000040800F2
:1000000000000220256600085D5F00085F5F0008B1
:10001000615F0008635F0008655F00080000000082
:10002000000000000000000000000000675F000802
:10003000695F0008000000006B5F00086D5F00084A
:100040007566000875660008756600087566000824
:100050007566000875660008756600087566000814
:100060007566000875660008756600087566000804
:1000700075660008756600087566000875660008F4
:1000800075660008756600087566000875660008E4
:1000900075660008756600087566000875660008D4
:1000A00075660008756600087566000875660008C4
:1000B00075660008756600087566000875660008B4
:1000C00075660008756600087566000875660008A4
:1000D0007566000875660008756600087566000894
:1000E0007566000875660008756600087566000884
:1000F0007566000875660008756600087566000874
:100100007566000875660008756600087566000863
:100110007566000875660008756600087566000853
:100120007566000875660008756600087566000843
:100130007566000875660008756600087566000833
:10014000756600087566000875660008755F00082A
:100150007566000875660008756600087566000813
:100160007566000875660008756600087566000803
:1001700075660008756600087566000800000000D6
:080180007566000875660008B1
:1001900010B5054C237833B9044B13B10448AFF3C1
:1001A00000800123237010BDE0010020000000004A
:1001B0003C6F000808B5034B1BB103490348AFF37C
:1001C000008008BD00000000E40100203C6F000832
:1001D00053B94AB9002908BF00281CBF4FF0FF31AE
:1001E0004FF0FF3000F072B9ADF1080C6DE904CEAC
:1001F00000F006F8DDF804E0DDE9022304B0704702
:100200002DE9F047089E04468846002B4BD18A42D0
:10021000154667D9B2FA82F24AB1C2F1200701FA53
:1002200002F320FA07F7954047EA030894404FEAA3
:10023000154E230CB8FBFEF71FFA85FC0EFB178842
:1002400043EA084307FB0CF1994209D9EB1807F17F
:10025000FF3080F01B81994240F21881023F2B440D
:100260005B1AA4B2B3FBFEF00EFB103344EA034466
:1002700000FB0CFCA44509D92C1900F1FF3380F0D8
:100280000781A44540F2048102382C4440EA07402B
:10029000A4EB0C0400271EB1D4400023C6E90043A0
:1002A0003946BDE8F0878B4209D9002E00F0EB807B
:1002B0000027C6E9000138463946BDE8F087B3FAA1
:1002C00083F7002F47D18B4202D3824200F2FA809B
:1002D000841A61EB030301209846002EE0D0C6E9A2
:1002E0000048DDE702B9FFDEB2FA82F2002A40F0F0
:1002F0008F80491B4FEA154E1FFA85F80127B1FB85
:10030000FEFC230C0EFB1C1143EA014308FB0CF11D
:10031000994207D9EB180CF1FF3002D2994200F252
:10032000CD808446591AA3B2B1FBFEF00EFB101427
:1003300043EA044408FB00F8A04507D92C1900F152
:10034000FF3302D2A04500F2B6801846A4EB0804A1
:1003500040EA0C409FE7C7F1200CBB4022FA0CFE9C
:100360004EEA030E01FA07F420FA0CF521FA0CF319
:100370004FEA1E482543B3FBF8F92C0C08FB193350
:100380001FFA8EFA44EA034309FB0AF49C4202FA7C
:1003900007F200FA07F10BD91EEB030309F1FF3056
:1003A00080F087809C4240F28480A9F10209734466
:1003B0001B1BADB2B3FBF8F008FB103345EA034456
:1003C00000FB0AFAA24508D91EEB040400F1FF3332
:1003D0006BD2A24569D90238744440EA0940A0FBB7
:1003E0000289A4EB0A044C45C2464B4654D351D073
:1003F000002E69D0B1EB0A0564EB030404FA0CFC8F
:10040000FD40FC404CEA0505C6E90054002747E7DB
:10041000C2F1200320FA03F7954001FA02F021FA15
:1004200003F34FEA154E3843010CB3FBFEF71FFAF6
:1004300085F80EFB173341EA034107FB08F38B42B3
:1004400004FA02F407D9691807F1FF3C2FD28B4256
:100450002DD9023F2944CB1A81B2B3FBFEF00EFB2B
:10046000103341EA034100FB08F38B4207D96918B6
:1004700000F1FF3C17D28B4215D902382944C91A22
:1004800040EA07473BE73746304609E70746E7E6D5
:100490001846FBE64145ABD2B8EB020A69EB0E0207
:1004A00001381346A4E76046E9E7184695E7674632
:1004B000D1E781467CE702382C4447E7ACF1020CD7
:1004C0002B442FE7384608E73746E9E6704700BF78
:1004D000034613F8012B002AFBD1181A0138704784
:1004E00001F0FF01102A2BDB10F0070F08D010F8E5
:1004F000013B013A8B422DD010F0070F42B3F6D1E9
:10050000F0B441EA012141EA014122F007047FF001
:1005100000070023F0E80256083C85EA010586EA58
:10052000010685FA47F5A3FA87F586FA47F6A5FA94
:1005300087F68EB9EED1F0BC01F0FF0102F00702A0
:1005400032B110F8013B013A83EA010313B1F8D14B
:100550000020704701387047002D06BF354603382C
:10056000073815F0010F07D1013015F4807F02BF65
:10057000013015F4C03F0130F0BC0138704700BFB6
:1005800010B504460E4B18784FF47A73B3FBF0F3B2
:100590000C4A1068B0FBF3F000F0AAF868B90F2C11
:1005A00001D901200AE0002221464FF0FF3000F07F
:1005B0005DF8034B5C60002000E0012010BD00BF2F
:1005C00000000020F000002008B50B4B1A6842F430
:1005D00000721A601A6842F480621A601A6842F463
:1005E00080721A60032000F02FF80020FFF7C8FF88
:1005F00005F060FC002008BD003C0240034A116881
:10060000034B1B780B441360704700BF6803002046
:1006100000000020014B1868704700BF68030020ED
:1006200038B50446FFF7F6FF0546B4F1FF3F02D0A8
:10063000044B1B781C44FFF7EDFF401BA042FAD38C
:1006400038BD00BF00000020074AD36823F4E063F0
:100650001B041B0C000200F4E060184340F0BF6074
:1006600040F40030D060704700ED00E030B4174B2C
:10067000DB68C3F30223C3F10704042C28BF04245E
:100680001D1D062D18D9033B4FF0FF3505FA04F464
:1006900021EA0401994005FA03F322EA030319430E
:1006A00000280BDB0901C9B200F1604000F5614090
:1006B00080F8001330BC70470023E5E700F00F001E
:1006C0000901C9B2024B1954F4E700BF00ED00E084
:1006D00014ED00E0002807DB00F01F0240090123B1
:1006E0009340024A42F82030704700BF00E100E02A
:1006F0000138B0F1807F0AD2064B5860064AF021DB
:1007000082F823100020986007221A6070470120A9
:10071000704700BF10E000E000ED00E010B40A49AF
:100720000C6924F440740C610C6944F440740C614D
:100730000C6944F001040C610260BFF36F8F4360E9
:100740005DF8044B704700BF003C0240074B1A693C
:1007500022F440721A611A6942F400721A611A692D
:1007600042F001021A610160704700BF003C024084
:10077000074B1A6922F440721A611A6942F48072B6
:100780001A611A6942F001021A610180704700BFC4
:10079000003C0240064B1A6922F440721A611A6941
:1007A0001A611A6942F001021A610170704700BFB4
:1007B000003C0240204BDB6813F0100F07D01F4AAB
:1007C000D36943F01003D3611B4B1022DA601A4B3C
:1007D000DB6813F0200F07D0184AD36943F00803F1
:1007E000D361154B2022DA60134BDB6813F0400F06
:1007F00007D0124AD36943F00403D3610E4B402261
:10080000DA600D4BDB6813F0800F07D00B4AD36919
:1008100043F00203D361084B8022DA60064BDB68A9
:1008200013F0020F07D0054AD36943F02003D361C8
:10083000014B0222DA607047003C02406C0300204A
:10084000094B1B69002B01DB00207047064B074A50
:100850005A6002F188325A601B69002B01DB0020CC
:1008600070470120704700BF003C024023016745EC
:1008700038B50446154B0022DA61FFF7CBFE05467A
:10088000134BDB6813F4803F0AD0B4F1FF3FF7D07D
:10089000CCB1FFF7BFFE401BA042F1D903200DE011
:1008A0000B4BDB6813F0010F02D0094B0122DA6019
:1008B000074BDB6813F0F20F01D1002038BDFFF7C2
:1008C00079FF0120FAE70320F8E700BF6C0300205E
:1008D000003C0240F8B51D4C247E012C34D01F464C
:1008E00016460D460446194B01221A764CF250303A
:1008F000FFF7BEFF014698B9BCB1012C1AD0022CFB
:100900001DD032463B462846FFF708FF4CF25030D8
:10091000FFF7AEFF01460E4A136923F0010313618E
:100920000A4B00221A760846F8BDF1B22846FFF7B6
:1009300031FFEBE7B1B22846FFF71AFFE6E7314691
:100940002846FFF703FFE1E70221ECE76C030020F4
:10095000003C0240074B1A6922F440721A611A697E
:1009600042F004021A611A6942EA002040F4803021
:1009700018617047003C024010B449B1012921D0F0
:10098000022902D04FF4407403E04FF4007400E0F9
:1009900000240E4B196921F4407119611A69224330
:1009A0001A611A6922F0F8021A611A6942EAC00053
:1009B00040F0020018611A6942F480321A615DF851
:1009C000044B70474FF48074E3E700BF003C0240E3
:1009D000164B1B6813F4007F10D0144B1A6822F4D6
:1009E00000721A601A6842F400621A601A6822F4EF
:1009F00000621A601A6842F400721A600B4B1B689E
:100A000013F4806F10D0094B1A6822F480621A60C8
:100A10001A6842F480521A601A6822F480521A60EE
:100A20001A6842F480621A60704700BF003C0240BE
:100A3000F8B5224B1B7E012B3ED00E4604461F4BC1
:100A400001221A764CF25030FFF712FF074670BBB6
:100A50004FF0FF3333602368012B16D0A568E3689D
:100A6000A2681344AB4220D9217C2846FFF784FFBB
:100A70004CF25030FFF7FCFE114A136923F0FA03E1
:100A80001361074680B90135E9E76168207CFFF70B
:100A900061FF4CF25030FFF7EBFE0746084A13693E
:100AA00023F00403136100E03560FFF791FF034B6F
:100AB00000221A763846F8BD0227FBE76C030020B7
:100AC000003C024000230F2B00F2D780F0B583B02A
:100AD00039E0072200E00022AA403A430234674D81
:100AE00045F82420664A1468F24302EA04054F6878
:100AF00017F4803F01D046EA0405614C2560646824
:100B000002EA04054F6817F4003F01D046EA0405E5
:100B10005B4C6560A46802EA04054F6817F4801F07
:100B200001D046EA0405564CA560E46822404D68B1
:100B300015F4001F01D046EA0402514CE260013373
:100B40000F2B00F2988001229A400C6804EA0206FA
:100B5000B242F4D14C68651E012D03D9112C01D08D
:100B6000122C12D185685F000324BC4025EA0405DD
:100B7000CC68BC402C438460456825EA02054C687B
:100B8000C4F300129A402A434260C4685F00032203
:100B9000BA40D24314408D68BD402543C5604C68BF
:100BA000022C01D0122C13D1DD08083550F825E0B5
:100BB00003F007044FEA840C0F2404FA0CF42EEA25
:100BC000040E0C6904FA0CF444EA0E0440F82540C3
:100BD000046822404C6804F00304BC4022430260D5
:100BE0004A6812F0805FAAD000220192254A546C14
:100BF00044F480445464526C02F480420192019A9D
:100C00009C08A51C1D4A52F8257003F003029500AC
:100C10000F22AA4027EA02071B4A90423FF45BAF2B
:100C200002F5806290421AD002F58062904218D09C
:100C300002F58062904216D002F58062904214D094
:100C400002F58062904212D002F58062904210D08C
:100C500002F5806290423FF43CAF08223CE701225B
:100C60003AE7022238E7032236E7042234E7052276
:100C700032E7062230E703B0F0BD7047003801408C
:100C8000003C0140003802400000024012B9090453
:100C900081617047816170472DE9F04782B0076834
:100CA000CA00521A930003445A6D1B6D9A4257D8DA
:100CB000B8469B1AC1EBC104A2000244526C9A428E
:100CC00000D31A460C46064602F1030A4FEA9A0A76
:100CD00016E009F1030A4FEA9A0AE3001B1B9D0084
:100CE0003544A96C337C00931FFA89F3E2B238468D
:100CF00001F0F4FDAB6C4B44AB646B6D4B446B6526
:100D000008EB441303F510639B699BB2534513D35F
:100D1000E3001B1B9A003244516D136D99420BD2B4
:100D200053B15B1AC4EBC4018A003244D2F8449038
:100D30009945CED39946CCE7E3001B1B98000644A7
:100D4000326D736D9A420FD804F00F040121A14057
:100D5000D7F8344824EA0104C7F83448002000E0FA
:100D6000012002B0BDE8F0870020FAE7F0B58BB0B3
:100D7000002800F08A800446056890F8BD3323B34C
:100D8000032384F8BD33EB6B13F4807F01D1002380
:100D90002361206801F036FB254655F8107B6E462E
:100DA0000FCD0FC60FCD0FC695E8030086E80300F0
:100DB000231D0ECB384601F063FA58B1022384F8A4
:100DC000BD33012528460BB0F0BD80F8BC3305F0DB
:100DD0002FF9D5E70021206801F01AFB002315E068
:100DE000D900C81A82002244012082F83D0082F80E
:100DF0003C30A2F84230002082F83F0050649064FA
:100E0000CA1A9100214408650133DBB26568AB4220
:100E1000E6D3002315E0D800C11A8A00224400213D
:100E200082F8FD1182F8FC3182F8FF11C2F8041239
:100E3000C2F80812C21A90002044C0F81012013300
:100E4000DBB29D42E7D8254655F8107B6E460FCDA4
:100E50000FC60FCD0FC695E8030086E80300231DDB
:100E60000ECB384601F01AFB054620B1022384F868
:100E7000BD330125A6E7002384F83830012384F828
:100E8000BD33206801F0D9FE9CE701259AE702688E
:100E900090F8BC33012B19D010B5012380F8BC3376
:100EA000836A012B0AD00446006801F0A5FA206885
:100EB00001F0B5FE002084F8BC0310BD8369012B4E
:100EC000F1D0936B43F480339363ECE702207047D7
:100ED00070B504460D460068066C00EB411303F53F
:100EE00030639A682169012911D037498E4254D064
:100EF0003DB9C5EBC50293002344D3F81032002B53
:100F00005CD0E9B2204605F0E9F8002070BD12F08F
:100F1000080F09D02D498E42F7D912F4004FF4D0B2
:100F20004FF400429A60F0E712F0200F28D112F03F
:100F3000280FEAD125498E4202D912F4004F22D15E
:100F4000E900491B8A002244D2F804121B69C3F34A
:100F50001203C91AC2F81412D2F80412D2F80832D5
:100F60000B44C2F8083235B9C5EBC50293002344DF
:100F7000D3F810325BB1E9B2204605F0AFF8C4E710
:100F800020229A60C1E74FF400429A60BDE704F561
:100F90007172012101F0A4FEEDE712F4004F09D1B6
:100FA00012F0200F01D020229A60E9B2204605F00D
:100FB00095F8AAE74FF400429A60A6E704F571722B
:100FC000002101F08DFE9CE70A31544F0A30544F46
:100FD00038B5044603681D6C03EB4111D1F8082BAA
:100FE0000E4B9D4207D901F5306112F4004F02D03B
:100FF0004FF400438B60204605F068F8074B9D4294
:1010000002D92369012B01D0002038BD04F571728B
:101010000121206801F064FEF6E700BF0A30544F5A
:101020002DE9F84F04460568284601F045FE08B151
:10103000BDE8F88F2F460646206801F00CFE002818
:10104000F6D0206801F007FE10F0020F04D02268ED
:10105000536903F002035361206801F0FCFD10F0B6
:10106000100F14D02268936923F010039361D5F810
:10107000208008F00F09C8F34343022B68D0062BE9
:1010800000F088802268936943F010039361206820
:1010900001F0E1FD10F4002F40F09080206801F095
:1010A000DAFD10F4802F40F0D480206801F0D3FDE9
:1010B0000028C0F24281206801F0CDFD10F4006FDD
:1010C0000AD0D5F8083813F0010F40F0508122689B
:1010D000536903F400635361206801F0BCFD10F410
:1010E000805F40F04881206801F0B5FD10F4005F9A
:1010F00040F0A781206801F0AEFD10F0080F40F02D
:10110000B881206801F0A7FD10F4801F40F0BA817B
:10111000206801F0A0FD10F4001F40F0BD812068A0
:1011200001F099FD10F0804F40F0C081206801F07F
:1011300092FD10F0040F3FF47BAF23685D6815F05B
:10114000040F40F0BC81226853682B4353606FE763
:1011500047F6F07318EA030F94D04FEAC90BABEBD4
:1011600009034FEA830AA2444FEA1818C8F30A0297
:10117000DAF80812284601F0D3FCC8F30A08DAF8B6
:1011800008324344CAF80832DAF814324344CAF841
:10119000143277E7082204F57171284601F0C0FC8B
:1011A000C8F30A184FEAC903A3EB09018A002244D5
:1011B000D2F814324344C2F8143263E7206801F0D5
:1011C0004EFD8046B14617E007EB49130122C3F8F4
:1011D000082B49462046FFF77BFE1DE007EB49132D
:1011E0000822C3F8082B49462046FFF7F1FE16E017
:1011F00009F101094FEA5808B8F1000F3FF44EAF6A
:1012000018F0010FF4D05FFA89F1206801F037FD82
:10121000824610F0010FD7D11AF0080FDED11AF074
:10122000100F04D007EB49131022C3F8082B1AF053
:10123000200F04D007EB49132022C3F8082B1AF41F
:10124000005FD5D007EB49134FF40052C3F8082BC9
:10125000CEE7206801F00BFD8046B1462AE05946F2
:10126000204604F047FF1AF0080F04D007EB49139B
:101270000822C3F808291AF0100F04D007EB49130D
:101280001022C3F808291AF0400F04D007EB4913C5
:101290004022C3F808291AF0020F04D007EB4913C3
:1012A0000222C3F808291AF0800F41D109F101097F
:1012B0004FEA5808B8F1000F3FF4F7AE18F0010FED
:1012C000F4D05FFA89FB5946206801F0E1FC8246C0
:1012D00010F0010FC7D009F00F03012101FA03F24A
:1012E000D7F8343823EA0203C7F8343807EB491338
:1012F000C3F8081923698B42B1D14FEAC902A2EBA6
:10130000090293002344596C9A6C0A449A64B9F117
:10131000000FA4D1C9EBC902930023441B6D002B1D
:101320009DD104F571720121206801F0D9FC96E786
:1013300049462046FFF7B0FCB8E7D5F8043823F05B
:101340000103C5F8043894F8F433012B08D0204683
:1013500004F010FF2268536903F000435361AAE6CA
:10136000002184F8F413204600F055FAF2E72046F5
:1013700004F0E8FEABE605F50068D8F8043023F089
:101380000103C8F804301021206801F059F820E06A
:1013900007EB46134FF67F31C3F80819D3F800293D
:1013A00022F40012C3F80029D3F8002942F00062A9
:1013B000C3F80029C3F8081BD3F8002B22F400124D
:1013C000C3F8002BD3F8002B42F00062C3F8002BC7
:1013D00001366368B342DBD8D8F81C3043F0011300
:1013E000C8F81C30236BEBB1D8F8843043F00B0302
:1013F000C8F88430D8F8443043F00B03C8F84430C0
:10140000D5F8003823F4FE63C5F8003804F571728E
:10141000217C206801F064FC2268536903F4805346
:10142000536160E6D8F8143043F4005343F02B03C3
:10143000C8F81430D8F8103043F00B03C8F8103057
:10144000DEE7206801F03CFC206801F0EFF8E06086
:10145000256800F0F3FC227B0146284600F056FF89
:10146000204604F058FE2268536903F40053536188
:1014700040E6204604F049FE2268536903F0080361
:1014800053613EE60021204604F080FE2268536945
:1014900003F4801353613BE60021204604F070FE04
:1014A0002268536903F40013536138E6204604F0C0
:1014B00073FE2268536903F08043536136E6204689
:1014C00004F070FE3FE690F8BC33012B0DD010B550
:1014D0000446012380F8BC3380F83810006801F01E
:1014E0008EFB002084F8BC0310BD02207047F8B5C5
:1014F00011F0800F28D101F00F06F500AF1BBC00E2
:10150000274604F5FC74044404343E460644002592
:1015100086F8FD5101F00F012170A260E37062783E
:1015200002B1E180022B1ED090F8BC33012B1DD0FC
:101530000546012380F8BC332146006801F087F896
:10154000002085F8BC03F8BD01F00F06F500AF1BC5
:10155000BC0027463834044404343E460644012582
:1015600086F83D50D6E700232371DDE70220EAE745
:1015700038B511F0800F21D101F00F05EA00541B9E
:10158000A3001C4603F5FC730344043325460544BD
:10159000002285F8FD2101F00F01197090F8BC239D
:1015A000012A1AD00446012280F8BC23194600689B
:1015B00001F098F8002084F8BC0338BD01F00F0456
:1015C000E200151BAB001D463833034404332C46A0
:1015D0000444012284F83D20DDE70220EDE770B5E8
:1015E00001F00F05EE00711B8C0004F5FC7404443F
:1015F000211D761BB4000444C4F80822C4F810323C
:101600000023C4F8143284F8FD3184F8FC510369D6
:10161000012B06D065B1DAB2006801F073F9002041
:1016200070BDC5EBC506B4000444C4F80C22F1E754
:10163000DAB2006801F0C4F8F1E701F00F01C1EB84
:10164000C1018B001844D0F81402704770B501F046
:101650000F05EE00711B8C0038340444211D761BED
:10166000B4000444A264236500236365012384F865
:101670003D3084F83C500369012B06D05DB1DAB2ED
:10168000006801F03FF9002070BDC5EBC506B4004D
:101690000444E264F2E7DAB2006801F091F8F2E79C
:1016A00038B501F00F0543689D4236D811F0800F20
:1016B00020D1CA00541AA3001C4603F5FC7303444E
:1016C000043322460244002182F8FD1101229A705F
:1016D0001D7090F8BC23012A21D00446012280F815
:1016E000BC231946006801F02FFA7DB1002084F870
:1016F000BC0313E0EA00511B8B0019463833034446
:1017000004330144012281F83D20DFE704F57172C2
:10171000217C206801F0E4FAE8E7012038BD0220CE
:10172000FCE710B501F00F0443689C422CD811F07F
:10173000800F1DD1E3001A1B91000A4601F5FC71D0
:10174000014404310244002382F8FD3100238B70F0
:101750000C7090F8BC33012B18D00446012380F89C
:10176000BC33006801F01DFA002084F8BC030CE0D3
:10177000E3001A1B91000A46383101440431024447
:10178000012382F83D30E1E7012010BD0220FCE793
:1017900090F8BC33012B14D010B50446012380F817
:1017A000BC3311F0800F06D1006800F05DFE002010
:1017B00084F8BC0310BD01F00F01006800F040FE8A
:1017C000F5E70220704730B40468606A29B10D461D
:1017D000A36A00EB134000230CE040EA0240A06241
:1017E00012E003F1400104EB8101496800EB114074
:1017F0000133DBB2691E8B42F3D340EA024005F1AC
:101800003F0104EB81014860002030BC7047036851
:101810005962002070477047002800F0E48170B5DD
:1018200082B00446036813F0010F3BD0A74B9B68BE
:1018300003F00C03042B2CD0A44B9B6803F00C0387
:10184000082B21D06368B3F5803F4FD0B3F5A02FAC
:1018500052D09E4B1A6822F480321A601A6822F421
:1018600080221A606368002B50D0FEF7D3FE054635
:10187000964B1B6813F4003F14D1FEF7CBFE401BC0
:101880006428F5D90320B3E1904B5B6813F4800F13
:10189000D8D08E4B1B6813F4003F03D06368002B35
:1018A00000F0A381236813F0020F55D0874B9B688B
:1018B00013F00C0F3ED0854B9B6803F00C03082BF4
:1018C00033D0E368002B68D0814B01221A60FEF709
:1018D000A1FE05467D4B1B6813F0020F54D1FEF7A5
:1018E00099FE401B0228F5D9032081E1774A13684D
:1018F00043F480331360B5E7744B1A6842F48022D6
:101900001A601A6842F480321A60ABE7FEF782FE72
:1019100005466E4B1B6813F4003FC3D0FEF77AFEFA
:10192000401B6428F5D9032062E1684B5B6813F41F
:10193000800FC6D1654B1B6813F0020F04D0E3681B
:10194000012B01D0012053E1604A136823F0F80312
:10195000216943EAC1031360236813F0080F40D0E4
:10196000636963B35B4B01221A60FEF753FE0546C1
:10197000564B5B6F13F0020F33D1FEF74BFE401B4B
:101980000228F5D9032033E1504A136823F0F80305
:10199000216943EAC1031360DEE74D4B00221A6060
:1019A000FEF738FE0546494B1B6813F0020FD3D0F3
:1019B000FEF730FE401B0228F5D9032018E1454B05
:1019C00000221A60FEF726FE0546404B5B6F13F0BF
:1019D000020F06D0FEF71EFE401B0228F5D9032099
:1019E00006E1236813F0040F79D0384B1B6C13F019
:1019F000805F33D100230193344B1A6C42F0805244
:101A00001A641B6C03F080530193019B0125324B38
:101A10001B6813F4807F23D0A368012B34D0052BDF
:101A200038D02A4B1A6F22F001021A671A6F22F07F
:101A300004021A67A368002B36D0FEF7EBFD0646BA
:101A4000224B1B6F13F0020F48D1FEF7E3FD801B02
:101A500041F288339842F3D90320C9E00025D6E744
:101A60001D4A136843F480731360FEF7D3FD0646E6
:101A7000194B1B6813F4807FCED1FEF7CBFD801B82
:101A80000228F5D90320B3E0104A136F43F0010395
:101A90001367CFE70D4B1A6F42F004021A671A6FF3
:101AA00042F001021A67C5E7FEF7B4FD0646074B90
:101AB0001B6F13F0020F11D0FEF7ACFD801B41F23B
:101AC00088339842F3D9032092E000BF00380240E7
:101AD00000004742800E474200700040EDB9A36904
:101AE000002B00F08480454A926802F00C02082A1C
:101AF00051D0022B17D0424B00221A60FEF78AFD0C
:101B000004463E4B1B6813F0007F42D0FEF782FD77
:101B1000001B0228F5D903206AE0384A136C23F031
:101B200080531364DBE7364B00221A60FEF772FD28
:101B30000546324B1B6813F0007F06D0FEF76AFDA6
:101B4000401B0228F5D9032052E0E369226A1343BF
:101B5000626A43EA8213A26A5208013A43EA0243E4
:101B6000E26A43EA0263254A5360254B01221A6068
:101B7000FEF750FD0446214B1B6813F0007F06D191
:101B8000FEF748FD001B0228F5D9032030E00020B5
:101B90002EE000202CE0012B2CD0184B5B6803F4C6
:101BA0008001E269914201D0012021E003F03F026F
:101BB000216A8A4201D001201AE0616A47F6C072A8
:101BC0001A408A4201D0012012E003F44032A16A97
:101BD0008A4201D001200BE003F07063E26A934275
:101BE0000AD0012004E001207047012000E000201D
:101BF00002B070BD0120FBE70020F9E70038024089
:101C000060004742324B9B6803F00C03042B5CD00E
:101C1000082B01D02F4870472DE9F04B2C4B5A6808
:101C200002F03F025B6813F4800F2BD0284B5B68F7
:101C3000C3F388131E4600275C010025E41A65EBF8
:101C40000705A90141EA9461A001001B61EB0501B0
:101C5000CB0043EA5073C400A01943EB07014B02C9
:101C600043EAD0534402204619460023FEF7B0FA57
:101C7000174B5B68C3F3014301335B00B0FBF3F028
:101C8000BDE8F08B124B5B68C3F388131E46002738
:101C90005C010025E41A65EB0705A90141EA94619E
:101CA000A001001B61EB0501CB0043EA5073C400A7
:101CB000A01943EB07018B0243EA905384022046AC
:101CC00019460023FEF784FAD2E70348704700BFA5
:101CD000003802400024F40000127A00002800F0CE
:101CE0009E8070B50446504B1B6803F00F038B4277
:101CF00009D2CBB24C4A1370136803F00F038B4226
:101D000001D0012070BD236813F0020F17D013F02B
:101D1000040F04D0454A936843F4E053936023686A
:101D200013F0080F04D0414A936843F46043936072
:101D30003E4A936823F0F003A068034393600D4686
:101D4000236813F0010F32D06368012B21D09A1E53
:101D5000012A25D9354A126812F0020F61D03349A1
:101D60008A6822F0030213438B60FEF753FC064699
:101D70002E4B9B6803F00C036268B3EB820F16D006
:101D8000FEF748FC801B41F288339842F0D90320CB
:101D9000B8E7264A126812F4003FE0D10120B1E70B
:101DA000224A126812F0007FD9D10120AAE71E4B07
:101DB0001B6803F00F03AB4209D9EAB21A4B1A7041
:101DC0001B6803F00F03AB4201D001209AE72368A0
:101DD00013F0040F06D0154A936823F4E053E1682A
:101DE0000B439360236813F0080F07D00F4A9368E2
:101DF00023F46043216943EAC1039360FFF702FFC4
:101E00000A4B9B68C3F30313094AD35CD840094BC0
:101E10001860094B1868FEF7B3FB002072E7012039
:101E2000704701206EE700BF003C024000380240CE
:101E3000F46F0008F000002004000020014B186837
:101E4000704700BFF000002008B5FFF7F7FF044B14
:101E50009B68C3F38223034AD35CD84008BD00BF0C
:101E6000003802400470000808B5FFF7E7FF044B94
:101E70009B68C3F34233034AD35CD84008BD00BF1C
:101E800000380240047000082DE9F04B0446026857
:101E9000136923F44053C1680B43136183680269DB
:101EA000134342691343C2691A430168CB6823F4A0
:101EB000164323F00C031343CB600268536923F4E9
:101EC000407381690B435361C369B3F5004F3BD045
:101ED0000368714A934200F0AB8002F5806293423E
:101EE00000F0A680FFF7B0FF4FF00009061849EB9D
:101EF000090716EB000B47EB090C4FEACC0343EA4A
:101F00005B734FEACB0293469C4663689A009B0F33
:101F100010EB0B0049EB0C01FEF75AF95F4DA5FBE6
:101F200000325109642202FB110213013233A5FB76
:101F300003235B0903F0F00202EB011203F00F032D
:101F4000216813448B60A4E00368534A934239D05C
:101F500002F58062934235D0FFF776FF83464FF05B
:101F6000000C06184CEB0C0716EB000847EB0C09AD
:101F70004FEAC90343EA58734FEAC80290469946AC
:101F800062680021921841EB01031BEB08004CEB47
:101F90000901FEF71DF9414DA5FB003251096422EC
:101FA00002FB1102D3003233A5FB03235B095A0065
:101FB00002F4F87202EB011203F0070321681344E4
:101FC0008B6066E0FFF750FF80464FF0000906186F
:101FD00049EB090716EB000B47EB090C4FEACC0362
:101FE00043EA5B734FEACB0293469C46626800214A
:101FF000921841EB010318EB0B0049EB0C01FEF7C3
:10200000E7F8264DA5FB00325109642202FB1102BC
:10201000D3003233A5FB03235B095A0002F4F872A4
:1020200002EB011203F00703216813448B6030E0D8
:10203000FFF71AFF4FF00009061849EB090716EBE6
:10204000000B47EB090C4FEACC0343EA5B734FEA02
:10205000CB0293469C4663689A009B0F10EB0B00E3
:1020600049EB0C01FEF7B4F80C4DA5FB0032510909
:10207000642202FB110213013233A5FB03235B0927
:1020800003F0F00202EB011203F00F032168134486
:102090008B60BDE8F08B00BF001001401F85EB5145
:1020A0002DE9F04105460F4616469846069C2B68DA
:1020B0001B6837EA03030CBF01230023B3421DD181
:1020C000B4F1FF3FF3D02CB1FEF7A4FAA0EB080067
:1020D000A042ECD92A68D36823F4D073D3602A686D
:1020E000536923F001035361202385F8393085F8C3
:1020F0003A30002385F83830032000E00020BDE8A6
:10210000F08158B310B5044690F839300BB324234E
:1021100084F839302268D36823F40053D360204612
:10212000FFF7B2FE2268136923F49043136122681B
:10213000536923F02A0353612268D36843F40053A0
:10214000D3600020E063202384F8393084F83A30EB
:1021500010BD80F8383003F0C9FED8E70120704781
:102160002DE9F04383B01E4690F83930DBB2202BC6
:1021700056D104460D469046002956D0002A56D026
:1021800090F83830012B54D0012380F838304FF0CC
:102190000009C0F83C90212380F83930FEF73AFA64
:1021A0000746A4F82480A4F8268084F8389010E02C
:1021B00000963B46002280212046FFF771FF002851
:1021C00039D12B882268C3F3080353602369C3B94C
:1021D0000235E38C9BB2B3B1E38C013B9BB2E38449
:1021E000A368B3F5805FE3D000963B4600228021D0
:1021F0002046FFF755FF00BB2A7823685A60013557
:10220000E7E70135E5E700963B46002240212046FE
:10221000FFF746FF034690B9202284F8392000E0FA
:102220000223184603B0BDE8F0830123F9E7012338
:10223000F7E70223F5E70323F3E70323F1E703239B
:10224000EFE70000002301330C4A934211D80269E2
:10225000002AF8DA036943F0010303610023013324
:10226000064A934207D8026912F0010FF7D1002005
:102270007047032070470320704700BF400D0300E4
:1022800084B010B5044603A880E80E00089B012B1B
:102290001FD1A36B23F48033A363E36823F4840387
:1022A00023F04003E360E36823F44013E3600F9BF3
:1022B000012B09D02046FFF7C5FF069B012B1BD041
:1022C000BDE8104004B07047E36843F48013E36056
:1022D000F0E7E36843F04003E3602046FFF7B2FF16
:1022E0000C9B23B9A36B43F48033A363E5E7A36B93
:1022F00023F48033A363E0E7A36843F00603A360FD
:10230000A36843F02003A360DAE70000022A0AD0A2
:102310000921C26822F47052C260C36843EA812373
:10232000C360002070472A4B0B442A4A93423FD98E
:10233000294B0B44294A93423CD9A1F57403A3F5D8
:102340001053274A934237D9A1F18373A3F5E7438A
:1023500002F5C332A032934230D9224B0B44224AB9
:1023600093422DD9214B0B4402F5922202F578724B
:10237000934227D91E4B0B4402F5C32202F520726B
:10238000934221D9A1F1B773A3F5585302F5B712BF
:1023900002F55872934219D9164B0B4402F51222DA
:1023A00002F5F862934201D90621B2E70721B0E7AE
:1023B0000F21AEE70E21ACE70D21AAE70C21A8E71B
:1023C0000B21A6E70A21A4E70921A2E70821A0E73B
:1023D000405327FFFF340C00401E1BFF3F420F00FD
:1023E0007F4F120060B6E5FE5FE3160000D3CEFE1D
:1023F000C05BB3FEE05459FE836843F00103836081
:1024000000207047836823F0010383600020704739
:1024100008B5C36823F0C043C360012909D069B976
:10242000C36843F08043C3603220FEF7F9F8002010
:1024300008BDC36843F00053C360F5E70120F7E728
:10244000890141F02001016100230133054A9342D3
:1024500005D8026912F0200FF7D100207047032041
:10246000704700BF400D03001023036100230133B8
:10247000054A934205D8026912F0100FF7D10020E7
:1024800070470320704700BF400D0300D0F80038AC
:102490001943C0F8001800207047000084B02DE9EF
:1024A000F041044607A880E80E002546002306E018
:1024B00003F1400204EB82020021516001330E2B34
:1024C000F6D9119B23BBD4F8043843F00203C4F8B7
:1024D0000438A36B43F40013A363A36B23F400231A
:1024E000A363A36B23F48023A3630023C4F8003EFB
:1024F00004F50066D4F80038C4F800380C9B012BB2
:1025000014D1099B6BB900212046FFF7BFFF11E0F2
:10251000A36B23F40013A363A36B43F40023A3630F
:10252000E3E701212046FFF7B1FF03E00321204646
:10253000FFF7ACFF10212046FFF782FF804608B16D
:102540004FF001082046FFF78FFF08B14FF0010858
:10255000002333617361F3610AE0C3B94FF0006097
:10256000C2F8000900220A614FF67F328A60013307
:102570000799994210D905EB431202F51061D2F880
:1025800000090028E9DB0020C2F80009EAE74FF063
:102590009040C2F80009E5E700230AE0BBB14FF024
:1025A0009047C2F8007B002202614FF67F328260C2
:1025B0000133994210D905EB431202F53060D2F88D
:1025C000007B002FEADB0027C2F8007BEBE74FF02F
:1025D0000067C2F8007BE6E7336923F48073336158
:1025E0000023A3616FF0804363610A9B1BB9A36959
:1025F00043F01003A361A2690B4B1343A3610D9B2E
:102600001BB1A36943F00803A361119B012B04D004
:102610004046BDE8F04104B07047A36943F08043F1
:1026200043F00403A361F3E700383C80D0F8083896
:1026300013F0060307D0022B07D0062B01D00F2082
:10264000704702207047002070470220704770B426
:102650000B784A78012A22D0D0F81C2803F00F0604
:102660000124B44042EA0442C0F81C2800EB4310A5
:10267000D0F8003B13F4004F0ED1D0F8003B8A682D
:10268000C2F30A02C97842EA8142134343F08053FD
:1026900043F40043C0F8003B002070BC7047D0F802
:1026A0001C4803F00F06B24092B22243C0F81C2827
:1026B00000EB4310D0F8002912F4004FECD1D0F811
:1026C00000298C68C4F30A04C97844EA814444EAC6
:1026D0008353134343F0805343F40043C0F800395D
:1026E000DAE7000030B40B784A78012A24D000EBF6
:1026F0004313D3F8002B002A50DBD0F83C580A785B
:1027000002F00F02012404FA02F225EA0242C0F8A4
:102710003C28D0F81C28097801F00F018C4022EAEF
:102720000444C0F81C48D3F8001B234A0A40C3F8ED
:10273000002B002030BC704700EB4313D3F8002976
:10274000002A1EDBD0F83C580A7802F00F02012460
:1027500004FA02F292B225EA0202C0F83C28D0F84C
:102760001C28097801F00F018C40A4B222EA04046D
:10277000C0F81C48D3F80019104A0A40C3F80029D1
:10278000D7E7D3F8002942F00062C3F80029D3F854
:10279000002942F08042C3F80029D3E7D3F8002B88
:1027A00042F00062C3F8002BD3F8002B42F08042C5
:1027B000C3F8002BA1E700BF0078F3EF007833ECFB
:1027C00070B40B784C78012C26D000EB431000F548
:1027D00030631C69E40CE4041C611C6924F0FF54A0
:1027E00024F4C0141C614C690CB18C684C611C69E8
:1027F00044F400241C611C698D68C5F312052C4348
:102800001C61012A65D0D0F8003B43F00443C0F8B6
:10281000003B002070BC70474C696CBB00EB43145C
:10282000D4F8105925F0FF5525F4C015C4F81059F7
:10283000D4F8105945F40025C4F81059D4F81059AB
:10284000ED0CED04C4F81059012A33D000EB43130A
:10285000D3F8002942F00442C3F800294B69002B49
:10286000D7D0D0F83428097801F00F040121A14015
:102870000A43C0F83428CCE700EB431404F5106495
:102880002569ED0CED042561256925F0FF5525F43A
:10289000C01525614E698D68AE4200D94D6125692C
:1028A00045F40025256125694E69C6F312063543B6
:1028B0002561C9E70A691AB100EB4311C1F814296F
:1028C00000EB4310D0F8002942F00442C0F8002980
:1028D0009FE7CA68002A96D05A6194E770B49DF8C1
:1028E0000C4064B903339D0807E000EB023303F5A5
:1028F000805351F8046B1E600134AC42F5D30020C4
:1029000070BC7047F0B583B00B784C78012C2BD09D
:1029100000EB431303F530642569ED0CED042561EC
:10292000256925F0FF5525F4C01525614D69002D59
:1029300040F0C58025698E68C6F3120635432561CF
:10294000256945F400252561012A00F0CD80CA786B
:10295000012A00F0CF80D3F8002B42F00442C3F8E4
:10296000002B002003B0F0BD4C6984BB00EB431486
:10297000D4F8105925F0FF5525F4C015C4F81059A6
:10298000D4F8105945F40025C4F81059D4F810595A
:10299000ED0CED04C4F81059012A4CD000EB4313A0
:1029A000D3F8004944F00444C3F80049CC78012C22
:1029B0006AD04B69002BD4D0D0F83428097801F0C4
:1029C0000F040121A1400A43C0F83428C9E700EBF5
:1029D0004314D4F81059ED0CED04C4F81059D4F890
:1029E000105925F0FF5525F4C015C4F81059D4F836
:1029F00010694D698F683D44013DB5FBF7F5474FC0
:102A000007EAC5453543C4F81059D4F810594E6942
:102A1000C6F312063543C4F8105904F51064CD7896
:102A2000012DB9D1256925F0C0452561256945F0FD
:102A300000552561B0E70A691AB100EB4314C4F8E8
:102A40001429CA78012A08D000EB4313D3F80029CF
:102A500042F00442C3F8002983E7D0F8082812F4B2
:102A6000807F08D100EB4311D1F8002942F00052D9
:102A7000C1F80029E8E700EB4311D1F8002942F042
:102A80008052C1F80029DFE7D0F8084814F4807FAD
:102A90000ED1D3F8004944F00054C3F8004914465D
:102AA0000B46C9681A789B8A0094FFF717FF58E70E
:102AB000D3F8004944F08054C3F80049EFE78E682A
:102AC0003544013DB5FBF6F52669144F07EAC547C5
:102AD0003E43266127698E68ADB206FB05F5C5F356
:102AE00012053D4325612FE7CA68002A3FF42FAF46
:102AF00062612CE7D0F8082812F4807F06D1D3F861
:102B0000002B42F00052C3F8002B24E7D3F8002B2F
:102B100042F08052C3F8002B1DE700BF0000F81FF1
:102B200003329208002393420CD210B400F5805473
:102B3000246841F8044B01339342F7D308465DF80B
:102B4000044B7047084670470B784A78012A14D026
:102B500000EB4310D0F8002B002A06DB2BB1D0F895
:102B6000003B23F08043C0F8003BD0F8003B43F427
:102B70000013C0F8003B0020704700EB4310D0F872
:102B80000029002A06DB2BB1D0F8003923F080435E
:102B9000C0F80039D0F8003943F40013C0F8003908
:102BA000E9E70B784A78012A0ED000EB4310D0F801
:102BB000003B23F40013C0F8003BCB78023BDBB2B0
:102BC000012B15D90020704700EB4310D0F80039D5
:102BD00023F40013C0F80039CB78023BDBB2012BA1
:102BE000F0D8D0F8003943F08053C0F80039E9E755
:102BF000D0F8003B43F08053C0F8003BE2E7D0F848
:102C0000003823F4FE63C0F80038D0F8003809011A
:102C100001F4FE610B43C0F8003800207047D0F883
:102C2000003E23F00303C0F8003ED0F8043823F040
:102C30000203C0F8043800207047D0F8003E23F0AB
:102C40000303C0F8003ED0F8043843F00203C0F894
:102C50000438002070474269806910407047D0F8FE
:102C6000183800F50060C0691840000C7047D0F8B3
:102C7000183800F50060C069184080B2704700EB5A
:102C80004111D1F8082B00F50060406910407047F1
:102C900010B4D0F81048D0F8343801F00F02D34007
:102CA000DB01DBB2234300EB411000F510608068CC
:102CB00018405DF8044B7047406900F00100704710
:102CC000D0F8003923F4FF6323F00703C0F800397C
:102CD000D0F8043843F48073C0F8043800207047FB
:102CE00010B4046C154B9C4203D9D0F8003B002B68
:102CF00016DB0024C0F8104BD0F8104B44F400242D
:102D0000C0F8104BD0F8104B44F01804C0F8104B2A
:102D1000D0F8104B44F0C044C0F8104B012903D048
:102D200000205DF8044B7047C0F8142BD0F8003B2E
:102D300043F08023C0F8003BF2E700BF0A30544F55
:102D400020230380004870470800002020230380D0
:102D50000048704728000020202303800048704767
:102D6000480000200A2303800048704768000020C4
:102D700038B504464FF41D7003F0A8FCD0B1C4F878
:102D8000BC02237CDBB94FF40073022201212046F0
:102D900003F070FA0125A4F878514FF40073022271
:102DA0008121204603F066FA2587204600F00DF9C0
:102DB000002038BD0023C4F8BC320220F9E74023CC
:102DC00002220121204603F055FA0125A4F878518A
:102DD000402302228121204603F04CFA2587E4E7B4
:102DE00038B50446012103F050FA0025A4F87851C3
:102DF0008121204603F049FA2587204600F01DF97D
:102E0000D4F8BC0218B103F069FCC4F8BC5200202D
:102E100038BD70B582B005460C46D0F8BC620023C0
:102E2000ADF806300B7813F0600235D0202A7ED141
:102E30004A78FE2A05D0FF2A1DD001F075F803203C
:102E400078E04A888AB9CA88012A0ED113F0800F27
:102E50000BD0D0F8C0329B699847306001223146D0
:102E6000284601F094FB002064E02146284601F04A
:102E70005BF803205EE04A8842B9CA8832B913F091
:102E8000800F03D100F0C2F8002053E0214628460D
:102E900001F04AF803204DE04B780B2B43D8DFE8D4
:102EA00003F0062F4242424242424242152390F82A
:102EB0009C32032B06D102220DF1060101F067FBC3
:102EC000002037E001F030F8032033E090F89C3226
:102ED000032B05D10122311D01F059FB002029E00F
:102EE00001F022F8032025E090F89C32032B03D157
:102EF0008B78736000201DE001F016F8032019E0C4
:102F000090F89C32032B01D0002013E04B880BB1CA
:102F100000200FE0097903F0C0F92179284600F07C
:102F200036F9002006E000F0FFFF032002E000F089
:102F3000FBFF032002B070BD08B500F09FF8002031
:102F400008BD08B500F00AF9002008BD19B1C0F8A5
:102F5000C012002070470320704738B5D0F8BC423B
:102F6000D4F81832D4F83852AD1AC4F838520025C3
:102F700084F83C5204252572934228BF13460A4622
:102F8000812103F0AAF938BD38B50546D0F8BC4216
:102F900094F81C3223B9D4F818320BB1637A3BB1E0
:102FA0008121284603F081F9637A022B04D038BDD1
:102FB000012103F07AF9F3E78121284603F075F93E
:102FC0000121284603F071F9F1E738B50546D0F83C
:102FD000BC4200202072607284F8610284F86002B2
:102FE00084F86202D5F8C0321B6898470121284650
:102FF00003F053F98121284603F04FF91F2304F50C
:1030000004720121284603F070F938BD70B50446FA
:10301000D0F8BC620023337201257572812103F060
:103020004CF92946204603F048F91F2306F504729F
:103030002946204603F059F970BDD0F8BC32002271
:103040001A72704738B50546D0F8BC420A4BC4F82E
:10305000303284F83C12002323720D2304F50C72E5
:10306000812103F03AF91F2304F504720121284657
:1030700003F03BF938BD00BF5553425310B5044629
:10308000D0F8BC120B7A022B06D004D3042B02D842
:103090000021FFF7D7FF10BD01F21F2291F81D128A
:1030A00000F05BFD0028F6DA01212046FFF7CAFF99
:1030B000F1E7000038B50546D0F8BC42D4F8143228
:1030C000C4F83432D4F81832C4F83832012103F08D
:1030D000BAF81F2804D1D4F810221F4B9A420CD002
:1030E0002023052294F81D12284600F0A7F8022399
:1030F00063722846FFF748FF38BD94F81D12012976
:10310000EED894F81E32002BEAD0102BE8D804F247
:103110001F22284600F021FD00280BDB237A013B0B
:10312000DBB2022BE8D9E26882B900212846FFF71A
:1031300089FFE1E7237A052B03D02846FFF724FF18
:10314000DAE701212846FFF77DFFD5E704F11001FA
:103150002846FFF702FFCFE75553424310B5044618
:10316000D0F8BC321A7A12B1012A03D010BDFFF791
:10317000A1FFFBE703F21F2293F81D1200F0EDFC04
:103180000028F3DA01212046FFF75CFFEEE710B5D7
:103190000446D0F8BC325B7A022B03D011F0800FCA
:1031A00008D110BD812103F080F80121204603F0F1
:1031B0007CF8F6E7012BF4D00121FFF743FFF0E79D
:1031C000D0F8BC3212792AB1012283F862220020A1
:1031D000D860704783F86222F9E7C2605AB110B430
:1031E000013A92B28C5C83181C74002AF8D100203A
:1031F0005DF8044B704700207047000008B5D0F818
:10320000BC0213799AB2172B04D80349FFF7E5FFE4
:10321000002008BD1722F8E7C800002008B5D0F844
:10322000BC02137A9AB21B2B04D80349FFF7D5FFCF
:10323000002008BD1B22F8E7AC00002010B4D0F835
:10324000BC4294F8611201F1480004F8302004EB0C
:10325000C0000371002343710131C9B284F86112C7
:10326000042902D05DF8044B704784F86132F9E715
:1032700070B50546D0F8BC42D4F818327BB90E467A
:1032800094F86232022B13D0D0F8C0329B68084603
:1032900098470346A8B90022E260184670BD202373
:1032A000052294F81D12FFF7C9FF4FF0FF33F4E732
:1032B0003A230222FFF7C2FF052323724FF0FF33A8
:1032C000EBE73A23022231462846FFF7B7FF0523F2
:1032D00023724FF0FF33E0E710B5D0F8BC42D4F8CA
:1032E00018320BB100230DE02023052294F81D12A3
:1032F000FFF7A4FF4FF0FF3028E0E118002008742A
:103300000133DBB2112BF8D9702323740C23E3753E
:1033100094F8603294F861128B4210D003F14801A6
:1033200014F83100A07404EBC101087920774979C1
:1033300061770133DBB284F86032042B07D01223AB
:10334000E3601379122B06D8E360002010BD002340
:1033500084F86032F3E70020F8E7000010B5D0F8F9
:10336000BC42D4F8183273B1537813F0010F23D054
:1033700093788BB1802B16D1082218492046FFF78D
:103380002CFF002029E02023052294F81D12FFF7CE
:1033900055FF4FF0FF3020E0062211492046FFF78D
:1033A0001CFF002019E02423052294F81D12FFF7CA
:1033B00045FF4FF0FF3010E0D0F8C032DB6901EB81
:1033C000C101880019180B79053312799A4200D986
:1033D0001A462046FFF701FF002010BDE000002044
:1033E000E800002010B5D0F8BC4294F86232012BFE
:1033F0000CD0137903F00303012B13D0022B17D049
:10340000032B12D1002384F862320EE0137903F00B
:103410000303022BEDD124230522FFF70FFF4FF00A
:10342000FF3004E0002384F862320020E06010BD29
:1034300084F86232F9E7F0B583B005460F46D0F85C
:10344000BC42D0F8C0325B680DF1060269463846CE
:10345000984730B9064694F86232022B01D0002317
:103460000DE03A23022239462846FFF7E7FE4FF0E7
:10347000FF361FE0E2180021117401339BB20B2BC1
:10348000F8D90823E374009A531E190E2175C3F36B
:1034900007416175C3F30723A375013AE27502235F
:1034A0002376BDF80630002262761A0AA276E37609
:1034B0000C23E360304603B0F0BD70B505460E4600
:1034C000D0F8BC42D0F8C0325B6804F5197204F53C
:1034D0001A7130469847E8B9014694F86232022BD7
:1034E00018D0D4F86822531E180E2074C3F3074076
:1034F0006074C3F30723A374013AE274B4F864322E
:103500000022227562751A0AA275E3750823E3602A
:10351000084670BD3A23022231462846FFF78EFE48
:103520004FF0FF31F4E72DE9F04107468846154694
:10353000D0F8BC42D0F8C0325B6804F5197204F5CB
:103540001A714046984788B9064694F86232022BB1
:103550000CD0AB7AEA7A120442EA03622B7B42EA8D
:1035600003226B7B1A43E26000230DE03A23022220
:1035700041463846FFF762FE4FF0FF3626E0E1187D
:10358000002008740133DBB29A42F8D8D4F86822DC
:10359000531E190E2175C3F307416175C3F3072349
:1035A000A375013AE275B4F864320022227662769D
:1035B0001A0AA276E376AA7AEB7A1B0443EA02633C
:1035C0002A7B43EA02236A7B1343E3603046BDE86B
:1035D000F08110B5D0F8BC421344D4F86842A3423D
:1035E00001D8002010BD21230522FFF727FE4FF050
:1035F000FF30F7E72DE9F84306468946D0F8BC428C
:10360000D4F87052B4F8643203FB05F5B5F5007FC9
:1036100028BF4FF40075D0F8C022176904F11008D4
:10362000B5FBF3F39BB2D4F86C2241464846B84749
:1036300000281EDB2B4642468121304602F04DFE1B
:10364000B4F86432B5FBF3F2D4F86C321344C4F826
:103650006C32D4F870329B1AC4F87032D4F8382225
:10366000551BC4F838526BB9032323720020BDE800
:10367000F8831123042249463046FFF7DFFD4FF05F
:10368000FF30F4E70020F2E7F8B506460F46D0F821
:10369000BC42237A9BBB154694F91C32002B36DAC8
:1036A00094F86232022B3BD0D0F8C0329B680846B7
:1036B000984700283BD1AB78EA78120442EA0362CB
:1036C0002B7942EA03226B791A43C4F86C22E97918
:1036D0002B7A43EA0123C4F8703239463046FFF7AB
:1036E00078FF002836DBD4F81822D4F87012B4F82A
:1036F000643203FB01F39A4222D1022323724FF476
:103700000073E36039463046FFF774FFF8BD2023AD
:10371000052294F81D12FFF791FD4FF0FF30F5E7F9
:103720003A230222FFF78AFD4FF0FF30EEE73A23FB
:10373000022239463046FFF781FD4FF0FF30E5E7C2
:103740002023052294F81D123046FFF777FD4FF035
:10375000FF30DBE74FF0FF30D8E7F8B506460F46FD
:10376000D0F8BC42237A002B39D1154694F91C328B
:10377000002B3CDA94F86232022B41D0D0F8C032F0
:103780009B6808469847002841D1AB78EA78120434
:1037900042EA03622B7942EA03226B791A43C4F8A6
:1037A0006C22A979EB791B0443EA0163297A43EA85
:1037B0000123697A0B43C4F8703239463046FFF76B
:1037C00008FF002836DBD4F81822D4F87012B4F8B9
:1037D000643203FB01F39A4222D1022323724FF495
:1037E0000073E36039463046FFF704FFF8BD20233D
:1037F000052294F81D12FFF721FD4FF0FF30F5E789
:103800003A230222FFF71AFD4FF0FF30EEE73A238A
:10381000022239463046FFF711FD4FF0FF30E5E751
:103820002023052294F81D123046FFF707FD4FF0C4
:10383000FF30DBE74FF0FF30D8E72DE9F8430646CD
:103840008846D0F8BC42D4F87052B4F8643203FB16
:1038500005F5B5F5007F28BF4FF40075D0F8C022FC
:10386000D2F8149004F11007B5FBF3F39BB2D4F82F
:103870006C2239464046C847002822DBB4F864026F
:10388000B5FBF0F1D4F86C220A44C4F86C22D4F8E9
:1038900070325B1AC4F87032D4F83822551BC4F861
:1038A0003852BBB103FB00F3B3F5007F28BF4FF4E0
:1038B00000733A460121304602F017FD0020BDE8B2
:1038C000F8830323042241463046FFF7B7FC4FF04C
:1038D000FF30F4E700213046FFF7B4FB0020EEE7AD
:1038E0002DE9F04105460F46D0F8BC42237A002B63
:1038F00076D11646D4F81832002B43D094F91C32F6
:10390000002B48DBD0F8C0329B6808469847002857
:103910004AD1D5F8C032DB6838469847804600283F
:103920004BD1B378F278120442EA0362337942EA67
:10393000032273791A43C4F86C22F179337A43EA8B
:103940000123C4F8703239462846FFF742FE0028AA
:103950004ADBD4F87022B4F8643203FB02F3D4F8E3
:1039600018229A4232D101212172B3F5007F28BF7B
:103970004FF4007304F11002284602F0B6FC4046F2
:10398000BDE8F0812023052294F81D12FFF756FCB4
:103990004FF0FF38F3E72023052294F81D12FFF7BC
:1039A0004DFC4FF0FF38EAE73A2302223946284619
:1039B000FFF744FC4FF0FF38E1E7272302223946A6
:1039C0002846FFF73BFC4FF0FF38D8E720230522BD
:1039D00094F81D122846FFF731FC4FF0FF38CEE770
:1039E000FFF72BFF8046CAE74FF0FF38C7E72DE906
:1039F000F04105460E46D0F8BC42237A002B40F039
:103A000089809046D4F81832002B51D094F91C329A
:103A1000002B56DBD0F8C0329B6808469847002838
:103A200058D1D5F8C032DB683046984707460028A1
:103A30005BD198F8023098F80320120442EA03623E
:103A400098F8043042EA032298F805301A43C4F883
:103A50006C2298F8061098F807301B0443EA0163BB
:103A600098F8081043EA012398F809100B43C4F8AA
:103A7000703231462846FFF7ACFD00284EDBD4F803
:103A80007022B4F8643203FB02F3D4F818229A428D
:103A900036D101212172B3F5007F28BF4FF40073A6
:103AA00004F11002284602F020FC3846BDE8F081FF
:103AB0002023052294F81D12FFF7C0FB4FF0FF37BB
:103AC000F3E72023052294F81D12FFF7B7FB4FF010
:103AD000FF37EAE73A23022231462846FFF7AEFBDA
:103AE000052323724FF0FF37DFE7272302223146F9
:103AF0002846FFF7A3FB052323724FF0FF37D4E7D7
:103B00002023052294F81D122846FFF797FB4FF05B
:103B1000FF37CAE7FFF791FE0746C6E74FF0FF37CA
:103B2000C3E710B5D0F8BC42537813F0020F0AD1A6
:103B3000D4F87032D4F86C22FFF74BFD002809DB73
:103B40000020E06010BD24230522FFF777FB4FF033
:103B5000FF30F7E74FF0FF30F4E710B5D0F8BC4284
:103B60001378252B44D019D81A2B38D00DD8032B15
:103B70002CD0122B2DD033B320230522FFF75EFB70
:103B8000022363724FF0FF301FE01E2B24D0232B43
:103B90002BD01B2BF0D1FFF725FC16E05A2B21D0A0
:103BA00008D82A2B2AD02F2B2ED0282BE4D1FFF790
:103BB0006BFD0AE0A82B1ED0AA2B22D09E2BDBD1B6
:103BC000FFF7B1FC01E0FFF753FB10BDFFF784FBEB
:103BD000FBE7FFF7C3FBF8E7FFF7F2FAF5E7FFF7BC
:103BE0000DFBF2E7FFF71AFBEFE7FFF724FCECE72A
:103BF000FFF763FCE9E7FFF7B0FDE6E7FFF770FECC
:103C0000E3E7FFF7F4FEE0E7FFF78BFFDDE7C0B186
:103C100008B50346D0F8B80210B10020C3F8B802C6
:103C2000D3F8CC0210B10020C3F8CC0209B1C3F81C
:103C3000B4121846012380F89C32027002F0B8FAE0
:103C400008BD0320704710B582B00023ADF80630E0
:103C500059B10446C4F8B8128B6A0DF106009847B2
:103C6000C4F8CC02002002B010BD0320FBE708B569
:103C700002F0F8FA08BD08B5D0F8B83213B11B68E5
:103C8000984708BD0320FCE708B5D0F8B8320BB15F
:103C90005B689847002008BD38B5044600F2AA25A5
:103CA000284600F02DF90123C4F89432B4F8B0325C
:103CB000C4F8983294F8AA1201F01F03012B0DD01A
:103CC0003BB1022B0FD001F08001204602F0EDFA4B
:103CD00003E02946204600F0CEFA38BD29462046AA
:103CE00000F004FBF9E72946204600F033FBF4E737
:103CF00010B5044629BB1346D0F89422032A01D0FC
:103D0000002029E0D0F85C11D0F8602191420DD854
:103D1000D0F8B8321B6923B190F89C22032A00D155
:103D20009847204600F050FC002015E0891AC0F8A2
:103D30005C118A4228BF0A46194600F03DFC00206B
:103D40000AE00A46D0F8B8329B6933B190F89C1269
:103D5000032904D11146984710BD0320FCE7032036
:103D6000FAE710B50446002946D11346D0F894224C
:103D7000022A05D094F8A032012B39D0002046E069
:103D8000C269016A8A4213D88A421DD0D4F8B83277
:103D9000DB682BB194F89C22032A01D12046984776
:103DA0008021204602F081FA204600F018FCE1E76D
:103DB000521AC261194600F0F7FB00231A46194651
:103DC000204602F092FAD5E783699942DED8D0F80E
:103DD00098229342DAD20022114600F0E5FB00213E
:103DE000C4F898120B460A46204602F07EFAC1E754
:103DF000002084F8A0020AE00A46D0F8B8325B69D5
:103E000033B190F89C12032904D11146984710BD94
:103E10000320FCE70320FAE770B50446012380F88D
:103E20009C320023C0F894324360C0F8A432D0F82A
:103E3000BC3223B1D0F8B8325B68002198474023E8
:103E400000221146204602F015FA0126A4F864610A
:103E50004025C4F860512B4600228021204602F004
:103E600009FAA6842562002070BD01740020704705
:103E700090F89C3280F89D32042380F89C32002018
:103E8000704790F89C32042B01D00020704790F8C6
:103E90009D3280F89C32F8E708B590F89C32032BED
:103EA00001D0002008BDD0F8B832DB69002BF8D073
:103EB0009847F6E7002070470020704700207047C1
:103EC00008B5012380F89C32D0F8B83213B15B6892
:103ED00001799847002008BD002302E00133DBB2DE
:103EE00001300278002AF9D11846704708B54B888E
:103EF000012B00D008BDC0F8A43200F065FBF9E743
:103F00000B7803704B7843708B78CA7843EA0223AE
:103F100043800B794A7943EA022383808B79CA79FB
:103F200043EA0223C380704710B50446802102F0A3
:103F3000BCF90021204602F0B8F910BD30B583B0BD
:103F400004460D460023ADF806304A88130A013BAB
:103F5000062B00F2AB80DFE803F0041F33A9A98D24
:103F60009A00D0F8B4321B680DF10601007C984726
:103F7000EA88002A00F0A380BDF80630002B00F08C
:103F800099809A4228BF1A46ADF80620014620467D
:103F900000F0FDFA03B030BD037C43B9D0F8B8326D
:103FA0009B6A0DF10600984702234370E0E7D0F8C2
:103FB000B832DB6A0DF10600984702234370D7E759
:103FC000D2B2052A52D8DFE802F003101D2A374486
:103FD000D0F8B4325B6823B10DF10601007C98473C
:103FE000C6E72946FFF7A0FFD4E7D0F8B4329B68B4
:103FF00023B10DF10601007C9847B9E72946FFF788
:1040000093FFC7E7D0F8B432DB6823B10DF10601A6
:10401000007C9847ACE72946FFF786FFBAE7D0F85F
:10402000B4321B6923B10DF10601007C98479FE76C
:104030002946FFF779FFADE7D0F8B4325B6923B1C9
:104040000DF10601007C984792E72946FFF76CFFC7
:10405000A0E7D0F8B4329B6923B10DF10601007CD2
:10406000984785E72946FFF75FFF93E72946FFF763
:104070005BFF8FE7037C33B9D0F8B8325B6B0DF18F
:104080000600984774E72946FFF74EFF82E7037C56
:1040900043B9D0F8B8321B6B0DF1060098470723DF
:1040A000437065E72946FFF73FFF73E72946FFF7AF
:1040B0003BFF6FE729462046FFF736FF6AE72046B9
:1040C00000F082FA66E738B504468B88F3B9CB88EE
:1040D000E3B94B887F2B19D803F07F0590F89C3209
:1040E000032B0CD080F89E52294602F0EEF82046B1
:1040F00000F06AFA35B1022384F89C3209E0FFF738
:1041000013FF06E0012384F89C3202E02046FFF70B
:104110000BFF38BD70B504460D4689782E4B1970DB
:1041200001290FD890F89C32022B11D0032B25D0F7
:104130002946FFF7F9FE284B19782046FFF7A4FD22
:10414000032603E02946FFF7EFFE0326304670BD45
:1041500081B14160FFF78FFD064620B12946204618
:10416000FFF7E2FEF2E7204600F02EFA032384F880
:104170009C32EBE700F028FA0026E7E7C9B1436874
:10418000994225D0D9B2FFF77FFD134B19786160B2
:104190002046FFF770FD0646B0B129462046FFF7DE
:1041A000C3FE21792046FFF76FFD022384F89C327D
:1041B000CCE7022380F89C324160FFF765FD204682
:1041C00000F002FA0026C1E7204600F0FDF9BDE745
:1041D00000F0FAF90026B9E7FC01002008B5CB8809
:1041E000012B0BD190F89C329BB1022B09D9032BE8
:1041F0000FD10122011D00F0CAF901E0FFF794FE82
:1042000008BD0146002341F8083F012200F0BFF934
:10421000F6E7FFF789FEF3E708B590F89C32013B1B
:10422000022B12D8CB88022B0CD10123C360D0F80B
:10423000A4320BB10323C360022200F10C0100F091
:10424000A6F908BDFFF770FEFBE7FFF76DFEF8E784
:1042500008B590F89C32013B022B09D84B88012B02
:1042600000D008BD0023C0F8A43200F0ADF9F8E793
:10427000FFF75AFEF5E708B50B7803F06003202B33
:1042800006D0402B04D043B1FFF74EFE002003E0E0
:10429000D0F8B8329B68984708BD4B78092B21D8D5
:1042A000DFE803F0141C201820090520100DFFF78B
:1042B00045FE0020F0E7FFF706FF0020ECE7FFF7E0
:1042C00029FFE9E7FFF78AFF0020E5E7FFF7A4FFF2
:1042D0000020E1E7FFF70AFE0020DDE7FFF7B8FF67
:1042E0000020D9E7FFF720FE0020D5E770B505468E
:1042F0000C460B7803F06003202B07D0402B05D031
:1043000023B1FFF711FE0026304670BD95F89C32B0
:10431000013B022B18D82379012B0FD8D5F8B832DE
:104320009B682146284698470646E388002BEBD138
:104330000028E9D1284600F047F9E5E7214628465C
:10434000FFF7F2FD0026DFE721462846FFF7ECFDE8
:104350000026D9E738B505460C468A880B7803F065
:104360006003202B08D0D1B2402B05D05BB1214691
:10437000FFF7DAFD002005E0D5F8B8329B6821464A
:104380002846984738BD6378012B2FD0002B5ED08C
:10439000032B40F0D98090F89C32022B06D0032BDF
:1043A00015D02146FFF7C0FD0020EBE709B18029B9
:1043B00005D121462846FFF7B7FD0020E2E701F0CE
:1043C00074FF8021284601F070FF0020DAE763883F
:1043D00023B919B1802901D0E38823B1284600F020
:1043E000F3F80020CEE701F060FFF7E790F89C3289
:1043F000022B06D0032B15D02146FFF795FD002098
:10440000C0E709B1802905D121462846FFF78CFD78
:104410000020B7E701F049FF8021284601F045FF61
:104420000020AFE76388002B40F0938011F07F0FEE
:104430000AD1284600F0C8F8D5F8B8329B68214662
:104440002846984700209DE701F037FFF1E790F8F4
:104450009C32022B06D0032B2AD02146FFF764FDA5
:1044600000208FE709B1802913D112F0800F15D1F8
:1044700001F07F0101EB81018B0003F5A871294454
:10448000043100240C600222284600F080F8204607
:1044900078E72146FFF748FD002073E701F07F0130
:1044A00001EB81018B0003F1100129440431E8E79D
:1044B00052B2002A1FDB01F00F0303EB83039800C5
:1044C0002844B0F864312BB3002A29DB01F07F02C5
:1044D00002EB8202930003F5A8742C44043409B162
:1044E000802927D10023236002222146284600F09C
:1044F0004EF8002046E701F00F0303EB830398001A
:104500002844838C002BDFD121462846FFF70CFD81
:10451000002037E721462846FFF706FD002031E757
:1045200001F07F0202EB8202930003F110042C449D
:104530000434D4E7284601F06FFE10B10123236054
:10454000D2E700232360CFE72146FFF7EDFC0020F0
:1045500018E7002016E7C8B170B50D4616460446A8
:10456000FFF7BAFC013040003080287003236B70E5
:10457000022307E0EA5401345A1CD2B20021A954A4
:104580000233DBB22278002AF4D170BD704710B537
:1045900013460222C0F894228361C3610A460021B7
:1045A00001F09BFE002010BD08B513460A4600210D
:1045B00001F093FE002008BD08B513460A4600210D
:1045C00001F093FE002008BD08B50423C0F8943222
:1045D00000231A46194601F080FE002008BD08B5E8
:1045E0000523C0F8943200231A46194601F07DFED7
:1045F000002008BD08B5044B03EB800252685268E6
:104600000344187A904708BD2802002008B5084BDB
:104610001B5C53B9064B01221A5403EB800252680B
:1046200012681844007A904708BD0020FCE700BFDC
:104630002802002038B5044C04EB80056D68AD6895
:104640000444207AA84738BD2802002038B5044C1D
:1046500004EB80056D68ED680444207AA84738BDF6
:104660002802002010B5044B03EB80046468246921
:104670000344187AA04710BD280200204278007831
:1046800040EA02207047C278837843EA02224378E6
:1046900043EA0223007840EA032070470170090AC8
:1046A000417070470170C1F307234370C1F30743A2
:1046B0008370090EC170704713462AB10A780270E0
:1046C00001300131013BF9D1704701700130013AED
:1046D000FBD1704730B4451C037808781B1A013AA7
:1046E00004D04C1C28462146002BF4D0184630BC80
:1046F000704700E0013003780BB18B42FAD11846C5
:104700007047000030B400252B4601E0012501333D
:10471000012B15D81A01174CA258002AF6D00468AC
:10472000A242F4D1134A02EB031254688268944205
:10473000EDD1104A02EB0312946842699442E6D12B
:10474000022B0AD0A1B90B4A02EB03139B89B3F5E4
:10475000807F07D0002030BC70472DB9022905D1D9
:104760000020F8E71020F6E70020F4E71220F2E737
:104770001020F0E700020020002000E001300128B6
:1047800004D80301034AD358002BF7D1023818BFCD
:10479000012070470002002070B4002300E00133C4
:1047A000012B13D81A01244CA45802689442F6D164
:1047B000214A02EB0312546882689442EFD11E4AE8
:1047C00002EB0312946842699442E8D1022B29D08B
:1047D00021B1194A02EB0312928952BB21BB164A3E
:1047E00002EB03129189013189B2134A02EB0312E1
:1047F0009181581C70BC70470133012B04D81A01F9
:104800000D4CA258002AF7D1022B10D006680A4D91
:104810001C012A192E518468546040699060002060
:104820009081D5E70023E8E74FF48071DDE70020B1
:10483000E0E70020DEE700BF000200200138012889
:1048400015D80D4B03EB00139B89B3F5807F03D084
:104850001BB1013B9BB200E00023074A02EB0012B0
:10486000938133B903010020034AD05070470220DE
:1048700070470020704700BF00020020002303E0C3
:104880005DF8044B70470133012B11D81A01094917
:104890008A588242F7D110B41A0100248C50013397
:1048A000012BEDD81A0103498A588242F7D1F3E768
:1048B000704700BF0002002002398369023B8B422F
:1048C00004D94389C06A01FB030070470020704788
:1048D00010B40468C26A0432A389B1FBF3F163899E
:1048E000B1FBF3F1106830B1814202D3091A0832EA
:1048F000F8E7506808445DF8044B704770B5064609
:104900000D4601F11A00FFF7B9FE3378032B00D0F2
:1049100070BD044605F11400FFF7B0FE44EA004004
:10492000F6E770B506460C46154691B204F11A003A
:10493000FFF7B4FE3378032B00D070BD290C04F1CF
:104940001400FFF7ABFEF8E72DE9F84F82468B46DF
:104950000F6800F124090B2220214846FFF7B5FE1D
:10496000002633464FF008082CE001357B5D2F2BE5
:10497000FBD05C2BF9D03D44CBF80050002E43D047
:104980009AF82430E52B35D0202C37D804238AF828
:104990002F30002028E008264FF00B0811E014F01B
:1049A000800F23D121461948FFF7A3FE50BBA4F185
:1049B0006103DBB2192B01D8203CE4B209F80640B0
:1049C00001362B465D1CFC5C202CD4D92F2CCDD07D
:1049D0005C2CCBD02E2C01D0B045E0D8B8F10B0F19
:1049E0000ED02E2CD7D00620BDE8F88F803C084B87
:1049F0001C5DD7E705238AF82430C5E70023C6E706
:104A00000620F1E70620EFE70620EDE7307000080A
:104A1000546F0008016809B10A4603E04FF0FF3304
:104A200008E001321378202B01D93A2BF9D13A2B27
:104A300002D000231846704710B44C1C0B78303B52
:104A4000092B08D8A24209D15BB90132026018468D
:104A50005DF8044B70474FF0FF33F8E74FF0FF333A
:104A6000F5E74FF0FF33F2E738B50D46A8B104463D
:104A70000368ABB11A78AAB18188DA88914203D071
:104A8000092000232B6038BD5878FFF7B3FD10F0E4
:104A9000010F0AD123680020F4E709200023F1E781
:104AA0000920EFE709200023ECE709200023E9E7CC
:104AB000F8B5C3780BB90020F8BD0446056B00F1CA
:104AC000340701232A4639464078FFF7BFFDA8B9CD
:104AD0000023E370636AEB1AE269934210D2A6786E
:104AE000012E09D9E3691D4401232A46394660781D
:104AF000FFF7ACFD013EF3E70020DDE70120DBE737
:104B00000020D9E770B5036B8B4212D004460D46E6
:104B1000FFF7CEFF064668B901232A4604F13401A7
:104B20006078FFF787FD10B101264FF0FF35256350
:104B300000E00026304670BD10B504460023C37067
:104B40004FF0FF330363FFF7DDFF18BB04F23220A1
:104B5000FFF794FD4AF6552398421DD194F834305E
:104B6000E92B05D0636B03F0FF130F4A934215D175
:104B700004F16A00FFF787FD20F07F400B4B98425D
:104B80000ED004F18600FFF77EFD094B984209D153
:104B9000002002E0042000E0032010BD0220FCE71A
:104BA0000020FAE70220F8E7EB00900046415400AD
:104BB000464154332DE9F04F87B00F461646002387
:104BC0000B60FFF727FF051EC0F26781C94B03EB9F
:104BD00085031C6A002C00F064813C6006F0FE0630
:104BE000237873B16078FFF705FD10F0010F08D14D
:104BF000002E00F0588110F0040F40F05681002084
:104C00004CE100232370E8B26070FFF7FFFC10F066
:104C1000010F40F04C811EB110F0040F40F04981AB
:104C200004F10C0202216078FFF71CFD002840F01F
:104C30004281A289A2F500739BB2B3F5606F00F2C6
:104C40003C81531E1A4201D0012027E10021204659
:104C5000FFF772FF022800F0A0800025042800F072
:104C60002E81012800F22D8104F13F00FFF706FD9F
:104C7000A789B84240F0278104F14A00FFF7FEFC03
:104C8000804620B904F15800FFF7FDFC8046C4F8C7
:104C90001C8094F84460A670731EDBB2012B00F2F6
:104CA000148108FB06F694F84190A4F80A90B9F133
:104CB000000F00F00C8109F1FF3319EA030F40F0F7
:104CC000088104F14500FFF7D9FC824620814FEAB4
:104CD000571BB0FBFBF30BFB13039BB2002B40F005
:104CE000FA8004F14700FFF7C9FC019020B904F1F4
:104CF0005400FFF7C8FC019004F14200FFF7BEFC2E
:104D00000146002800F0E9808219BAFBFBFB5A44F7
:104D1000019B9342C0F0E3809B1AB3FBF9F9B9F110
:104D2000000F00F0DE804FF6F57399454DD94FF036
:104D3000030B40F6F573994501D84FF0010B09F1CB
:104D40000209C4F8189025624B1963622A44E26292
:104D5000BBF1030F3CD0BAF1000F00F0C880334420
:104D6000A362BBF1020F68D14FEA490942E000207B
:104D700006AB03EB850343F8100C0135032D0ED869
:104D800004F134002B0103F5DF7318440379002B81
:104D9000EDD00830FFF777FCEAE70025EEE70026C4
:104DA0000AE029462046FFF7C7FE01287FF656AFE6
:104DB0000136032E3FF652AF06AB03EB860353F8E2
:104DC000105C002DEDD10320F2E74FF0020BB0E7AD
:104DD00004F15E00FFF752FC002840F08480BAF135
:104DE000000F40F0828004F16000FFF74CFCA062ED
:104DF0004FEA8909B94409F1FF33B3FBF7F7474597
:104E00007ED84FF0FF336361236180232371BBF1B0
:104E1000030F05D104F16400FFF730FC012813D023
:104E200084F800B0334A938C01339BB29384E380BF
:104E30002046FFF723FD002030E009EB490309F08D
:104E4000010909EB5309D5E7691C2046FFF75AFE13
:104E50000028E5D10023237104F23220FFF70EFC75
:104E60004AF655239842DBD104F13400FFF70BFCDE
:104E7000214B9842D4D104F50670FFF704FC1F4B78
:104E80009842CDD104F50770FFF7FDFB606104F592
:104E90000870FFF7F8FB2061C2E70B2007B0BDE800
:104EA000F08F0C20FAE70020F8E70A20F6E703204D
:104EB000F4E70A20F2E70120F0E70120EEE7012005
:104EC000ECE70D20EAE70D20E8E70D20E6E70D20EE
:104ED000E4E70D20E2E70D20E0E70D20DEE70D20FE
:104EE000DCE70D20DAE70D20D8E70D20D6E70D200E
:104EF000D4E700BF0002002052526141727241614A
:104F00000D20CBE72DE9F047012940F2928083691B
:104F10008B4240F2908017460D4604460378022BE0
:104F20004DD0032B64D0012B01D0022684E001EB8D
:104F30005108416A8389B8FBF3F31944FFF7E2FD96
:104F40000646002878D104F1340908F1010AA28943
:104F5000B8FBF2F302FB138815F0010524D019F910
:104F6000083003F00F033A0102F47F621343DBB20F
:104F700009F808300123E370616AA389BAFBF3F3EF
:104F800019442046FFF7BEFD0646002854D1A289E9
:104F9000BAFBF2F302FB13AA45B1C7F3071209F8F3
:104FA0000A200123E37047E0FBB2E1E719F90A2088
:104FB00022F00F02C7F303273A43D2B2EFE7416A68
:104FC00083895B08B5FBF3F31944FFF79BFD0646A5
:104FD00090BB04F134006D00A289B5FBF2F302FB33
:104FE0001355B9B22844FFF759FB0123E37023E0BE
:104FF000416A83899B08B5FBF3F31944FFF782FDEF
:105000000646C8B927F0704704F13403A900A28905
:10501000B1FBF2F502FB15151D442846FFF733FBE3
:1050200000F0704139432846FFF73CFB0123E37051
:1050300002E0022600E002263046BDE8F087F8B51F
:10504000066801296AD9B3698B4269D90C4633785D
:10505000022B35D0032B49D0012B01D001205EE07B
:1050600001EB5105716AB389B5FBF3F3194430467E
:10507000FFF748FD002855D16F1CB389B5FBF3F24B
:1050800003FB1255354495F83450716AB7FBF3F3BE
:1050900019443046FFF736FD002846D1B289B7FBE8
:1050A000F2F302FB13773E4496F8340045EA002001
:1050B00014F0010F01D0000931E0C0F30B002EE025
:1050C000716AB3895B08B4FBF3F319443046FFF708
:1050D00019FD68BB06F134006100B289B1FBF2F33F
:1050E00002FB13110844FFF7C9FA18E0716AB3898B
:1050F0009B08B4FBF3F319443046FFF703FDD0B926
:1051000006F13400A100B389B1FBF3F403FB1411E1
:105110000844FFF7B8FA20F0704000E00120F8BD25
:105120000120FCE74FF0FF30F9E74FF0FF30F6E7E2
:105130004FF0FF30F3E74FF0FF30F0E72DE9F0419B
:105140000768B1F5001F43D206460D4611F01F0F48
:1051500041D1716184681CB93B78022B00D9BC6ACB
:10516000CCB93B89B3EB551F37D9BB6AF361B46146
:10517000F369002B39D0BA89B5FBF2F21344F3611D
:1051800007F13403B989B5FBF1F201FB12551D4457
:10519000356200201DE07B89B7F80C8008FB03F81E
:1051A00045450FD321463046FFF749FF0446B0F18D
:1051B000FF3F14D0012814D9BB69834213D9A5EB52
:1051C0000805EDE721463846FFF776FBF061CEE7AC
:1051D0000220BDE8F0810220FBE70220F9E7012070
:1051E000F7E70220F5E70220F3E70220F1E72DE9D7
:1051F000F04107460668884631B935698DB1B36913
:10520000AB420FD801250DE0FFF719FF0346012837
:1052100047D9B0F1FF3F49D0B269824246D84546EE
:1052200000E001252C460CE021463846FFF707FF39
:10523000034670B1012839D0B0F1FF3F36D0AC42FF
:1052400033D00134B369A342EED8012D2BD9022407
:10525000EAE74FF0FF3221463046FFF753FE0346A0
:1052600010B9B8F1000F0ED1A3B934617269B369F6
:10527000023B9A4201D8013A7261337943F001034B
:105280003371234612E0224641463046FFF73AFE8C
:105290000346E9E7012B01D0012307E04FF0FF337C
:1052A00004E0012302E0002300E000231846BDE8EB
:1052B000F081F8B50E46056801292ED9074611463A
:1052C000AB69B3422CD952B14FF0FF322846FFF7F9
:1052D00019FE844618B125E02646A24222D931465D
:1052E0003846FFF7ACFE0446F0B101281FD0B0F1FC
:1052F000FF3F1FD0002231462846FFF703FE8446B9
:1053000080B96B69AA69911E8B42E5D201336B614A
:105310002B7943F001032B71DEE74FF0020C01E023
:105320004FF0020C6046F8BD4FF0000CFAE74FF06A
:10533000020CF7E74FF0010CF4E72DE9F0410668A5
:105340004569C369002B72D02035B5F5001F70D2B6
:105350000F460446B189B5FBF1F201FB12523AB98E
:105360000133C3618169A1B93389B3EB551F0CD9EE
:10537000656106F13403B189B5FBF1F201FB125509
:105380001D4425620020BDE8F0810023C361042094
:10539000F9E7B289B5FBF2F27389013B1A42E7D112
:1053A000FFF74DFE8046012845D9B0F1FF3F44D0BC
:1053B000B369834233D88FB1A1692046FFF717FF45
:1053C000804600283BD001283BD0B0F1FF3F3AD0C7
:1053D0003046FFF76DFB28B10120D4E70023E361DD
:1053E0000420D0E7B289002106F13400FFF76DF9FF
:1053F00041463046FFF760FA3063002773899F42C9
:105400000AD20123F3703046FFF752FBE8B90137A7
:10541000336B01333363F1E7336BDB1B3363C4F866
:10542000188041463046FFF747FAE061A0E70420C4
:10543000A9E70420A7E70220A5E70120A3E70720AA
:10544000A1E702209FE701209DE701209BE770B5BF
:10545000044606680021FFF771FE054640B1284664
:1054600070BD00212046FFF768FF05460028F6D1F1
:10547000E1693046FFF746FB05460028EFD1206A78
:1054800003787BB1C37A03F03F03A371C37A13F0AF
:10549000080FE6D10B2204F12401FFF71BF90028C5
:1054A000DFD1DCE70425DAE730B583B004460191AB
:1054B000056801E001330193019B1A782F2AF9D086
:1054C0005C2AF7D00022A2601B781F2B21D901A9EA
:1054D0002046FFF739FA034618BB2046FFF7B7FF0F
:1054E00094F82F200346F8B912F0040F19D1A379CC
:1054F00013F0100F1FD005F134016069AA89B0FBC9
:10550000F2F302FB130319442846FFF7F7F9A060F2
:10551000DDE7802384F82F3011462046FFF70EFE8A
:105520000346184603B030BD0428FAD112F0040F28
:10553000F7D10523F5E70523F3E7F8B504460F4651
:1055400006680021FFF7FAFD0346C0B9002508E010
:105550000135BD4213D001212046FFF7EEFE034680
:1055600068B9E1693046FFF7CDFA034638B9226AD7
:105570001278E52AECD0002AEAD00025EBE7042BCC
:1055800001D01846F8BD0723FBE770B5044606684E
:105590000121FFF7D2FF054608B1284670BDE16939
:1055A0003046FFF7AFFA05460028F6D12022002149
:1055B000206AFFF78AF80B2204F12401206AFFF722
:1055C0007BF80123F370E8E770B50446FFF770FA43
:1055D000054648B92378032B08D00022114660788D
:1055E000FFF740F800B10125284670BD2379012B53
:1055F000F3D104F13406A28900213046FFF765F8A3
:105600004AF6552104F23220FFF748F80E49304699
:10561000FFF748F80D4904F50670FFF743F8616994
:1056200004F50770FFF73EF8216904F50870FFF7ED
:1056300039F8226A01322263012331466078FFF78C
:1056400005F800232371C8E752526141727241612B
:1056500070B584B001900091164604A840F8041D6E
:10566000FFF7D8F9041E1EDB114B03EB84031D6A00
:1056700025B12846FFF702F900232B70019B0BB1DF
:1056800000221A70019B0A4800EB8400036263B198
:10569000012E02D0002004B070BD002201A968468E
:1056A000FFF788FAF7E70B20F5E70020F3E700BFE4
:1056B000000200202DE9F04391B00191002800F094
:1056C00012810546164602F03F073A4603A901A893
:1056D000FFF770FA044630B10CB100232B6020466E
:1056E00011B0BDE8F083039B0493019904A8FFF770
:1056F000DBFE044660B99DF93F30002B51DB37F0EB
:10570000010314BF0121002104A8FEF7FBFF04469A
:1057100016F01C0F5BD0002C4FD0042C43D047F068
:105720000807002C62D117F0080F5FD000F074FA60
:10573000064601460C980E30FEF7B4FF31460C9831
:105740001630FEF7AFFF0C9B2022DA72039EDDF8C5
:10575000308041463046FFF7D1F88146002241466D
:105760003046FFF7DEF800210C981C30FEF79AFF58
:10577000039B0122DA70B9F1000F37D0039B1E6B37
:105780000022494604A8FFF794FD044670BB314649
:105790000398FFF7B7F9044609F1FF33039A136141
:1057A00024E00624B4E7FEF7E7FF08B91224B6E7C1
:1057B00004A8FFF7EAFE0446B1E79DF8163013F09F
:1057C000110F12D116F0040FABD008240EE06CB903
:1057D0009DF8163013F0100F4ED116F0020F05D0C1
:1057E00013F0010F02D0072416E00724A4B917F024
:1057F000080F01D047F04007039B1B6B6B620C9BAB
:10580000AB6237F0010314BF0121002104A8FEF7A9
:10581000C3FF2861002864D0002C7FF45DAF039E95
:10582000DDF8308041463046FFF768F8A86008F19F
:105830001C00FEF728FFE8600021E9622E60F38873
:10584000AB802F7569752962A96105F130084FF4A5
:1058500080524046FEF739FF17F0200F3FF43CAF6F
:10586000EE68002E3FF438AFAE61039B5A899F89E2
:1058700007FB02F7A96805E00424CDE7B1F1FF3F7B
:105880000BD0F61B5CB9BE4209D92846FFF7D7FBFF
:1058900001460128F2D80224F0E70124F1E7E9618A
:1058A000002C7FF419AF039FB7F80C90B6FBF9F307
:1058B00009FB1363002B3FF40FAF3846FEF7FCFFE4
:1058C00008B9022409E7B6FBF9F202442A6201236F
:1058D00041467878FEF7AEFE00283FF4FDAE012485
:1058E000FBE60224F8E60924F9E62DE9F04F85B03D
:1058F00004468846164699460023C9F800300190B0
:1059000003A9FFF7B1F80746002846D1677D002FAD
:1059100043D1237D13F0020F00F0DA80A369F34234
:10592000C0F0A880DE43A5E0E36A002B39D0204612
:10593000FEF7CEFF002800F0C680012836D0B0F177
:10594000FF3F36D0E061A36803B9A06094F914303A
:10595000002B31DBDDF80CB0E1695846FEF7ACFFF7
:1059600000283AD02B180093BBF80CA0B6FBFAFA2B
:10597000BAF1000F4CD005EB0A03BBF80A209342A2
:1059800001D9A2EB050A5346009A41469BF8010053
:10599000FEF75CFE20B301276775384605B0BDE809
:1059A000F08FE1690198FFF722FCC3E702276775D2
:1059B000F3E701276775F0E70123226A04F130015C
:1059C00003984078FEF742FE20B9237D03F07F0361
:1059D0002375BFE701276775DFE702276775DCE7F7
:1059E000216A009BC91A514504D3039B9B890AFB7A
:1059F00003FA2FE0039B9B891A4603FB018104F104
:105A00003000FEF759FE237D03F07F032375ECE79A
:105A1000236A009A934203D0A269E3689A4245D36D
:105A2000009B2362039BB3F80CA0A069B0FBFAF3C0
:105A30000AFB1303AAEB030A564500D2B24604F14F
:105A40003000524641461844FEF736FE237D63F08F
:105A50007F032375D044A3695344A361E268934252
:105A600038BF1346E360D9F800305344C9F800301A
:105A7000A6EB0A063EB3A169039A9589B1FBF5F33B
:105A800005FB1313002BCDD1B1FBF5F55389013B79
:105A90001D407FF45BAF00297FF446AFA06800286B
:105AA0007FF448AF0198FFF7A2FB43E70123009A78
:105AB00004F130019BF80100FEF7BCFD0028AFD0D7
:105AC0000127677569E7237D43F04003237564E789
:105AD000072762E770B582B0044601A9FEF7C4FF4C
